:0300000002109C4F
:0C109C00787FE4F6D8FD7581210210E396
:10130700900993747FF0A3741FF0900993E0FCA3F6
:10131700E0FDF5828C83EFF08D828C83E06F6002B5
:04132700D322C322E8
:100B89009009F3ECF0A3EDF0900993747FF0A3744E
:100B990010F0900993E0FCA3E0F5828C83EFF090CC
:100BA9000993747FF0A37411F09009F3A3E0FF9007
:100BB9000993E0FCA3E0F5828C83EFF0900993742C
:100BC9007FF0A37412F0900993E0FCA3E0F5828C06
:100BD90083EBF0900993747FF0A37413F09009F7F5
:100BE900E0FEA3E0FFFD900993E0FAA3E0FBF582A4
:100BF9008A83EDF08B828A83E0FDEF6D7001EE60F0
:100C090002D322900993747FF0A37414F09009F928
:100C1900A3E0FF900993E0FCA3E0F5828C83EFF059
:100C2900900993747FF0A37415F09009FBA3E0FF7A
:100C3900900993E0FCA3E0F5828C83EFF09009938F
:100C4900747FF0A37416F09009FDA3E0FF90099357
:100C5900E0FCA3E0F5828C83EFF0900993747FF0B8
:100C6900A37417F09009FFE0FEA3E0FFFD9009933C
:100C7900E0FAA3E0FBF5828A83EDF08B828A83E0B8
:0C0C8900FDEF6D7001EE6002D322C3226B
:100D9500EF1207C40DC4050DCB0A0DD2140E252084
:100DA5000DD9280DE5320DEC500DF3640DFA7D0ECD
:100DB5000D900E01C80E30E80E19F400000E3B90A0
:100DC50009F274BF80139009F27431804C9009F2D6
:100DD500741880459009F27487F0A374FFF0805869
:100DE5009009F2740E80329009F2744980139009CB
:100DF500F2740480249009F27403801D9009F27442
:100E050043F0A3741BF080309009F27480F0A37452
:100E1500FAF080249009F27401F0A3741CF0801894
:100E2500E49009F2F0A37416F0800DE49009F2F055
:100E3500A37414F08002D322900993747FF0A374F5
:100E450006F09009F2E0FF900993E0FCA3E0FDF5C0
:100E5500828C83EFF08D828C83E06F6002D32290C9
:100E65000993747FF0A37407F09009F3E0FF9009EC
:100E750093E0FCA3E0FDF5828C83EFF08D828C83FB
:070E8500E06F6002D322C3FD
:010E8C002243
:1012E200900993747FF0A37409F0900993E0FEA330
:1012F200E0FFF5828E8374AAF08F828E83E0B4AA17
:0513020002C322D3220A
:10127E00900993747FF0A3E4F0900993E0FEA3E04D
:10128E00FFF5828E83E09009F2F08F828E837409CF
:10129E00F0900993E0FEA3E0F5828E83E030E00249
:0312AE00C322D385
:0112B100221A
:10112800900993747FF0A37401F0900993E0FCA3F5
:10113800E0F5828C83EFF024FE601224FE602B24FD
:10114800FC604424F86004240F7059C3229009936A
:10115800747FF0A37402F0900993E0FEA3E0F58297
:101168008E83E020E502C322D322900993747FF096
:10117800A37402F0900993E0FEA3E0F5828E83E069
:1011880030E002D322C322900993747FF0A3740243
:10119800F0900993E0FEA3E0F5828E83E020E1025F
:0611A800C322D322D32272
:100A7300EE75F008A4FF9009F2E0FBA3E0FAA3E00F
:100A83002FF9EA35F0FA9009F6E0900A04F090099C
:080A9300F5E0900A05F07D0872
:0B0A9B00900A00EBF0A3EAF0A3E9F0E2
:100AA600E4900A18F0C20D300D03020B88900993EA
:100AB600747FF0A37402F0900993E0FEA3E0F58240
:100AC6008E83E0FF30E2E0900993747FF0A3741008
:100AD600F0ED4480FF900993E0FAA3E0F5828A8363
:100AE600EFF0900993747FF0A37411F0900A14E06C
:100AF600FF900993E0FAA3E0F5828A83EFF090096C
:100B060093747FF0A37412F0900A15E0FF90099396
:100B1600E0FAA3E0F5828A83EFF0900993747FF000
:100B2600A37413F0900A04E0C454F0FFA3E0540F3A
:100B36002FFF900993E0FAA3E0F5828A83EFF09005
:100B46000993747FF0A37414F0900993E0FEA3E078
:100B5600F5828E8374F0F0900993747FF0A3741578
:100B6600F0AF057E00900993E0FCA3E0F87D0190CC
:100B76000A00E0FBA3E0FAA3E0F91206E17F011206
:020B8600112834
:010B8800224A
:0B0F4D009009F2EBF0A3EAF0A3E9F03A
:100F5800E49009F6F09009F6E0FFC3940850147481
:100F6800F82FF582E43409F583E4F09009F6E004FB
:100F7800F080E2ED131313541F9009F6F0ED5407B7
:100F8800A3F070249009F6E014F0E49009F5F090CD
:100F980009F6E0FF9009F5E0FED39F5054120A735A
:100FA8009009F5E004F080E7E49009F5F09009F67F
:100FB800E0FF9009F5E0FEC39F500B120A739009F9
:100FC800F5E004F080E79009F6E075F008A4FF90DA
:100FD80009F2E0FBA3E0FAA3E02FF9EA35F0FA9072
:100FE80009F7E0FD9009F6E0900A04F0A3F0120A70
:010FF8009B5D
:010FF90022D5
:020E8D00AD07AF
:100E8F0012127E920F300F037F0122EDB4010B126D
:100E9F0012E2920F300F037F02227F881213079204
:100EAF000F300F037F0322E49009F7F0A3F0A3F0B4
:100EBF00A3F0A3F0A374FFF0A3E4F0A374FFF0A3D7
:100ECF00E4F0A374F0F07B167A007D347C007F127F
:100EDF00120B89920F300F037F04227F64120D953E
:100EEF00920F300F037F0522900993747FF0A37444
:100EFF0008F0900993E0FEA3E0F5828E83741AF058
:100F0F00900993747FF0A37404F0900993E0FEA30B
:100F1F00E0F5828E83741DF0900993747FF0A3E443
:100F2F00F0900993E0FEA3E0FFF5828E83E054FE7C
:0D0F3F00F08F828E83E060037F06227F002A
:010F4C002282
:100FFA00E4900A18F0C20D300D0302109B90099379
:10100A00747FF0A37402F0900993E0FAA3E0F582EA
:10101A008A83E0FE30E2E0900993747FF0A37410B3
:10102A00F0900993E0FAA3E0F5828A8374C0F09005
:10103A000993747FF0A37411F0900993E0FAA3E086
:10104A00F5828A83EFF0900993747FF0A37412F00B
:10105A00900993E0FCA3E0F5828C83EDF09009936C
:10106A00747FF0A37413F0900993E0FEA3E0F58275
:10107A008E83E4F0900993747FF0A37414F09009BE
:10108A0093E0FEA3E0F5828E8374F0F07F011211E3
:01109A00282D
:01109B002232
:100C95000091E3720796E4750E9FED7C0998EA7B57
:100CA5001C8DFF6E1B8AF8691283F1601584F66747
:100CB50038A9DB4A3FAEDC4D36A7D54431A0D24337
:100CC50024B5C75623B2C0512ABBC9582DBCCE5F27
:100CD50070E1930277E694057EEF9D0C79E89A0B17
:100CE5006CFD8F1E6BFA881962F3811065F4861707
:100CF50048D9AB3A4FDEAC3D46D7A53441D0A233F7
:100D050054C5B72653C2B0215ACBB9285DCCBE2FE6
:100D1500E0710392E7760495EE7F0D9CE9780A9BD6
:100D2500FC6D1F8EFB6A1889F2631180F5641687C6
:100D3500D8493BAADF4E3CADD64735A4D14032A3B6
:100D4500C45527B6C35220B1CA5B29B8CD5C2EBFA6
:100D5500900173E2970674E59E0F7DEC99087AEB96
:100D65008C1D6FFE8B1A68F9821361F0851466F786
:100D7500A8394BDAAF3E4CDDA63745D4A13042D376
:100D8500B42557C6B32250C1BA2B59C8BD2C5ECF66
:10000E004109990041099A0A41091100C10B4208A0
:03001E008500005A
:0B12B2009009F2EBF0A3EAF0A3E9F0D2
:1012BD00E4FFAE051DEE601C9009F2E0FBA3E475A2
:1012CD00F0011207A2A9F0FA120707FE6F900C9514
:0412DD0093FF80DE1D
:0112E10022EA
:10134100EF1FAC0670011E4C60060075E13B80F09A
:011351002279
:0411AE007FF47E014B
:0811B2009009F2EEF0A3EFF04A
:1011BA00E4A3F0A3F09009F2E0FEA3E0FFC39009D4
:1011CA00F5E09F9009F4E09E5025E4FBFA7F017E4A
:1011DA00001213410BBB00010AEB640F4A70EE9038
:0F11EA0009F5E004F070CE9009F4E004F080C63F
:0111F90022D3
:10132B00759850438780758921758DFF758BFAD21F
:06133B008ED28ED2AC221E
:0F135200C28CC28D758CDC758A31D28CD2A922E7
:0C136100C2B58F993099FDC299D2B52217
:10123E009009F2EBF0A3EAF0A3E9F0A3ECF0A3ED32
:01124E00F0AF
:10124F00E4FDFC9009F2E0FBA3E0FAA3E0F98D8244
:10125F008C83120720FF1213610DBD00010C75E185
:0E126F003BD39009F6E09D9009F5E09C50D528
:01127D00224E
:03000B000207EAFF
:1007EA00C0E0C0F0C083C082C0D075D000C000C0D5
:0907FA0003C004C005C006C007DD
:10080300758CDC758A31B2B3900887E0C3940A50C3
:10081300030208F2740AF0900908E0FEA3E0FF4E19
:1008230070030208EB900996EEF0A3EFF024FFFFAC
:10083300EE34FFFE900888E06F7001EE600302085B
:10084300EB900996A3E02487F582E43408F583E06E
:10085300F460030208EB90090C04F0900995F09002
:100863000882E02401FFE433FE7C007D0612074D7D
:10087300900000E06D7032FB74882BF582E434083D
:10088300F583E0FF900882E075F080A42482F5826E
:10089300E5F03405F583E5822BF582E43583F583B2
:1008A300EFF00BEBB480D1803F7B0074882BF58293
:1008B300E43408F583E0FF900882E075F080A42417
:1008C30082F582E5F03405F583E5822BF582E43584
:1008D30083F583EFF00BEBB480D1900882E004F052
:1008E300E075F00684E5F0F0900908E4F0A3F090D9
:1008F3000887E004F0900A18E004F0E0C394324063
:10090300057433F0D20D900A17E004F0E0C394327B
:1009130040057433F0D20C900884E004F070069024
:100923000883E004F0C3900884E094F4900883E023
:0D093300940140097401F0A374F5F0D2089E
:10094000D007D006D005D004D003D000D0D0D082BC
:07095000D083D0F0D0E032AB
:030023000211FACD
:0D11FA00C0E0C0F0C083C082C0D075D00836
:10120700309829C298D2A9D28CAF99C2B590090853
:10121700E475F0011207A2FC748825F0F5827408C2
:0C1227003CF583EFF0900887E4F0D2B5AE
:0B123300D0D0D082D083D0F0D0E032C9
:0300030002095798
:0D095700C0E0C0F0C083C082C0D075D008E1
:10096400900A09E4F090090FE004F0700690090E73
:10097400E004F0900883E4F0A3F0C20890090EE0CC
:100984007004A3E06405700690090EF0A3F0C2B4ED
:10099400900993747FF0A37403F0900993E0FEA38D
:1009A400E0F5828E83E020E003020A6690099374E6
:1009B4007FF0A37410F0900993E0FEA3E0F5828E1B
:1009C40083E0900A06F0FEA3F0540FA3F0EE30E6A5
:1009D40003020A61900993747FF0A37410F0900AE3
:1009E40008E02405FFE433FE900993E0FCA3E0AAA9
:1009F4000CF97B01780A7C0A7D011206E1900A0C4D
:100A0400E090090DF0900A0DE0FDC4540F900A0621
:100A1400F0ED540FA3F0A3E0FF7E00C00EC00F90D2
:100A24000A07E075F008A42401F9740035F0A80958
:100A3400FC7D017B017A0A790FD00FD00E1206E1FA
:100A4400900A07E0FF900A06E0FEB50F10D20A757F
:100A5400F008A4FF900A08E02F900A16F07F041211
:040A64001128D2B4CF
:0B0A6800D0D0D082D083D0F0D0E0329C
:07136D00D2B8D2A8C2882209
:10002600E490099FF090099EF090099CF0D2A7C237
:10003600AF900883F0A3F0C20890091274FFF0C2D3
:10004600961211AED29612136D12132B1213527F03
:1000560001120E8D90099BEFF075E13BEF60117F69
:1000660001120E8D90099BEFF0C2B5C2B475E13B4B
:10007600D2B4D2B5E4900995F0A3F0A3F0900908A4
:10008600F0A3F0900887F090090CF0C20AC209901C
:10009600099CF0E490099DF090099CE0FF75F050F2
:1000A600A42481F582E5F03400F583C083C08290F4
:1000B600099DE0FED082D08375F0021207B8E4F005
:1000C60075F050EFA42482F582E5F03400F58375CF
:1000D600F002EE1207B8E4F090099DE004F0E0B4F7
:1000E60028B690099CE004F0E0B410A7E4900882DA
:1000F600F0900000F090099CF0E490099DF09009C2
:100106009DE0FFC39480502690099CE075F080A482
:100116002482F582E5F03405F583E5822FF582E445
:100126003583F583E4F090099DE004F080D09009D2
:100136009CE004F0E0B406C1D2AF75E13B900883C1
:10014600E0FEA3E0C39412EE940050030203049071
:100156000000E0FB900882E06B70030202E9E49085
:100166000995F0900000E0FC75F080A42482F582E9
:10017600E5F03405F583E0FD2402FEE43390090A38
:10018600F0A3CEF0ED04900913F0A37402F0E4A3FB
:10019600F0A3F075F080ECA42484F582E5F0340534
:1001A600F583E0900917F075F080EBA42485F582BD
:1001B600E5F03405F583E0900918F09009A0E4F025
:1001C600A37406F090090AE0FEA3E024FFFFEE34D4
:1001D600FFFE9009A0E0FCA3E0C39FEC9E50429076
:1001E60009A0E0FEA3E0FF900000E075F080A424E3
:1001F60080F582E5F03405F583E5822FF582E58307
:100206003EF583E0FD74132FF582E43409F583EDA2
:10021600F09009A1E004F070AB9009A0E004F08032
:10022600A390090AA3E02412F582E43409F5837445
:10023600FFF0E490099DF0E490099CF090099CE0A1
:10024600FFC394285057A3E0FE75F050A42481F50F
:1002560082E5F03400F58375F002EF1207B8E0FF8F
:10026600900917E0FDEFB5052C75F050EEA4248239
:10027600F582E5F03400F583C083C08290099CE0E6
:10028600D082D08375F0021207B8E0FF900918E01B
:10029600FEEF6E600890099CE004F0809F90099C38
:1002A600E0C39428501BA3E0900A14F0900A15743A
:1002B60034F07B017A09791390090AA3E0FD120F45
:1002C6004D90099DE004F0E0C39410500302023DF6
:1002D600E490090CF0900000E004F0E075F006846C
:1002E600E5F0F0E4900883F0A3F090099EE0FF7D2E
:1002F60034120FFA90099EE004F0E0540FF0200A41
:10030600030205DB900A16E024FFFEE434FF9009A1
:100316000AF0A3CEF090090DE0900581F09000015F
:10032600E014900913F0A37430F0900003E09009F4
:1003360015F0900004E0900916F09009A0E4F0A3EF
:100346007404F090090AE0FEA3E024FEFFEE34FFF9
:10035600FE9009A0E0FCA3E0FDC39FEC9E502AAFEF
:100366000574032FF582E43400F583E0FE74132F41
:10037600F582E43409F583EEF09009A1E004F0700B
:10038600C29009A0E004F080BA7B017A0979139043
:10039600090AA3E024FEFD1212B290090AE0FCA3AA
:1003A600E0FDFE2411F582E43409F583EFF07412C2
:1003B6002EF582E43409F58374FFF07B017A09791E
:1003C6001312123EC20AC20EE490099CF090099CD8
:1003D600E0FFC394285059900581E0FE75F050A4C3
:1003E6002481F582E5F03400F58375F002EF1207FB
:1003F600B8E0FF900915E0FDEFB5052C75F050EE5D
:10040600A42482F582E5F03400F583C083C082908F
:10041600099CE0D082D08375F0021207B8E0FF9005
:100426000916E0FEEF6E600890099CE004F0809DDE
:1004360090099CE0C3942850030205DBE4F0900980
:100446009CE0FFC394285049900581E0FE75F0506A
:10045600A42481F582E5F03400F58375F002EF12ED
:1004660007B8E0702475F050EEA42482F582E5F01A
:100476003400F583C083C08290099CE0D082D0838B
:1004860075F0021207B8E0600890099CE004F0805D
:10049600AD90099CE0C394285003020591E4A3F0B3
:1004A600900581E0FF75F050A42483F582E5F034D1
:1004B60000F583C083C08290099DE0FED082D08380
:1004C60075F0021207B8E0FDEE25E024A2F582E4FD
:1004D6003409F583EDF075F050EFA42484F582E538
:1004E600F03400F583C083C08290099DE0FFD0827E
:1004F600D08375F0021207B8E0FEEF25E024A3F5DD
:1005060082E43409F583EEF090099DE004F0E0B44E
:10051600278E900915E09009F0F0900916E09009F1
:10052600F1F0E490099DF090099DE0FF25E024A2FA
:10053600F582E43409F583E0FE900581E0FD75F06F
:1005460050A42481F582E5F03400F58375F002EFBE
:100556001207B8EEF090099DE0FF25E024A3F5828E
:10056600E43409F583E0FE75F050EDA42482F582AB
:10057600E5F03400F58375F002EF1207B8EEF0905F
:10058600099DE004F0E0B4289E804A900915E0FF3A
:10059600900581E0FE75F050A42481F582E5F034E3
:1005A60000F583C083C08290099CE0FDD082D08391
:1005B60075F0021207B8EFF0900916E0FF75F050DB
:1005C600EEA42482F582E5F03400F58375F002EDA1
:1005D6001207B8EFF0900993747FF0A37402F090BD
:1005E6000993E0FEA3E0F5828E83E0FF20E6030296
:1005F600014075E13BC2B5C2B41211AEE4FF120E62
:0B0606008DD2B5D2B41211AE0201403B
:1010A800020026E493A3F8E493A34003F68001F238
:1010B80008DFF48029E493A3F85407240CC8C33349
:1010C800C4540F4420C8834004F456800146F6DF18
:1010D800E4800B010204081020408090000EE47E9A
:1010E800019360BCA3FF543F30E509541FFEE4930D
:1010F800A360010ECF54C025E060A840B8E493A3D4
:10110800FAE493A3F8E493A3C8C582C8CAC583CAFE
:10111800F0A3C8C582C8CAC583CADFE9DEE780BEB6
:0100210000DE
:10061100E709F608DFFA8046E709F208DFFA803ECB
:1006210088828C83E709F0A3DFFA8032E309F608B8
:10063100DFFA8078E309F208DFFA807088828C8320
:10064100E309F0A3DFFA806489828A83E0A3F608D4
:10065100DFFA805889828A83E0A3F208DFFA804CAE
:1006610080D280FA80C680D4806980F28033801085
:1006710080A680EA809A80A880DA80E280CA8033EE
:1006810089828A83ECFAE493A3C8C582C8CCC58366
:10069100CCF0A3C8C582C8CCC583CCDFE9DEE78036
:1006A1000D89828A83E493A3F608DFF9ECFAA9F0B5
:1006B100EDFB2289828A83ECFAE0A3C8C582C8CC0B
:1006C100C583CCF0A3C8C582C8CCC583CCDFEADE24
:1006D100E880DB89828A83E493A3F208DFF980CC86
:1006E10088F0EF60010E4E60C388F0ED2402B4047F
:1006F1000050B9F582EB2402B4040050AF23234526
:06070100822390066173E3
:10070700BB010689828A83E0225002E722BBFE02F0
:09071700E32289828A83E4932223
:10072000BB010CE58229F582E5833AF583E022508E
:1007300006E92582F8E622BBFE06E92582F8E222D8
:0D074000E58229F582E5833AF583E49322F2
:10074D00BC000BBE0029EF8DF084FFADF022E4CC90
:10075D00F875F008EF2FFFEE33FEEC33FCEE9DEC59
:10076D00984005FCEE9DFE0FD5F0E9E4CEFD22ED9F
:10077D00F8F5F0EE8420D21CFEADF075F008EF2FE9
:10078D00FFED33FD4007985006D5F0F222C398FDDA
:05079D000FD5F0EA2277
:1007A200A3F8E0C5F025F0F0E5821582700215830A
:0607B200E0C838F0E82267
:0C07B800A42582F582E5F03583F583224C
:1007C400D083D082F8E4937012740193700DA3A3C4
:1007D40093F8740193F5828883E4737402936860D8
:0607E400EFA3A3A380DFD8
:00000001FF
