:0300000002126B7E
:0C126B00787FE4F6D8FD7581220212B2F3
:10163900900D99747FF0A3741FF0900D99E0FCA3AD
:10164900E0FDF5828C83EFF08D828C83E06F600280
:04165900D322C322B3
:100D5800900DFAECF0A3EDF0900D99747FF0A37468
:100D680010F0900D99E0FCA3E0F5828C83EFF090F1
:100D78000D99747FF0A37411F0900DFAA3E0FF9021
:100D88000D99E0FCA3E0F5828C83EFF0900D997447
:100D98007FF0A37412F0900D99E0FCA3E0F5828C2B
:100DA80083EBF0900D99747FF0A37413F0900DFE0F
:100DB800E0FEA3E0FFFD900D99E0FAA3E0FBF582C9
:100DC8008A83EDF08B828A83E0FDEF6D7001EE601F
:100DD80002D322900D99747FF0A37414F0900E0042
:100DE800A3E0FF900D99E0FCA3E0F5828C83EFF07F
:100DF800900D99747FF0A37415F0900E02A3E0FF94
:100E0800900D99E0FCA3E0F5828C83EFF0900D99AA
:100E1800747FF0A37416F0900E04A3E0FF900D9970
:100E2800E0FCA3E0F5828C83EFF0900D99747FF0DD
:100E3800A37417F0900E06E0FEA3E0FFFD900D9955
:100E4800E0FAA3E0FBF5828A83EDF08B828A83E0E7
:0C0E5800FDEF6D7001EE6002D322C3229A
:100F6400EF120AE30F93050F9A0A0FA1140FF4204E
:100F74000FA8280FB4320FBB500FC2640FC97D0FE6
:100F8400DC900FD0C80FFFE80FE8F40000100A90BF
:100F94000DF974BF8013900DF97431804C900DF9E4
:100FA40074188045900DF97487F0A374FFF080588D
:100FB400900DF9740E8032900DF974498013900DE0
:100FC400F974048024900DF97403801D900DF97454
:100FD40043F0A3741BF08030900DF97480F0A37477
:100FE400FAF08024900DF97401F0A3741CF08018B9
:100FF400E4900DF9F0A37416F0800DE4900DF9F06F
:10100400A37414F08002D322900D99747FF0A3741A
:1010140006F0900DF9E0FF900D99E0FCA3E0FDF5DA
:10102400828C83EFF08D828C83E06F6002D32290F8
:101034000D99747FF0A37407F0900DFAE0FF900D02
:1010440099E0FCA3E0FDF5828C83EFF08D828C8324
:07105400E06F6002D322C32C
:01105B002272
:10161400900D99747FF0A37409F0900D99E0FEA3E6
:10162400E0FFF5828E8374AAF08F828E83E0B4AAE1
:0516340002C322D322D5
:10151D00900D99747FF0A3E4F0900D99E0FEA3E097
:10152D00FFF5828E83E0900DF9F08F828E83740922
:10153D00F0900D99E0FEA3E0F5828E83E030E0029D
:03154D00C322D3E3
:011550002278
:1012F700900D99747FF0A37401F0900D99E0FCA311
:10130700E0F5828C83EFF024FE601224FE602B242C
:10131700FC604424F86004240F7059C322900D998F
:10132700747FF0A37402F0900D99E0FEA3E0F582BC
:101337008E83E020E502C322D322900D99747FF0BB
:10134700A37402F0900D99E0FEA3E0F5828E83E08E
:1013570030E002D322C322900D99747FF0A3740268
:10136700F0900D99E0FEA3E0F5828E83E020E10284
:06137700C322D322D322A1
:100C4200EE75F008A4FF900DF9E0FBA3E0FAA3E033
:100C52002FF9EA35F0FA900DFDE0900E0BF0900DB1
:080C6200FCE0900E0CF07D088F
:0B0C6A00900E07EBF0A3EAF0A3E9F006
:100C7500E4900E20F0C20E300E03020D57900D9930
:100C8500747FF0A37402F0900D99E0FEA3E0F58265
:100C95008E83E0FF30E2E0900D99747FF0A374102D
:100CA500F0ED4480FF900D99E0FAA3E0F5828A8388
:100CB500EFF0900D99747FF0A37411F0900E1CE085
:100CC500FF900D99E0FAA3E0F5828A83EFF0900D8D
:100CD50099747FF0A37412F0900E1DE0FF900D99AA
:100CE500E0FAA3E0F5828A83EFF0900D99747FF026
:100CF500A37413F0900E0BE0C454F0FFA3E0540F5F
:100D05002FFF900D99E0FAA3E0F5828A83EFF0902A
:100D15000D99747FF0A37414F0900D99E0FEA3E093
:100D2500F5828E8374F0F0900D99747FF0A374159D
:100D3500F0AF057E00900D99E0FCA3E0F87D0190F1
:100D45000E07E0FBA3E0FAA3E0F9120A007F011207
:020D550012F793
:010D57002279
:0B111C00900DF9EBF0A3EAF0A3E9F05E
:10112700E4900DFDF0900DFDE0FFC394085014749A
:10113700FF2FF582E4340DF583E4F0900DFDE00414
:10114700F080E2ED131313541F900DFDF0ED5407DB
:10115700A3F07024900DFDE014F0E4900DFCF090E6
:101167000DFDE0FF900DFCE0FED39F5054120C42A2
:10117700900DFCE004F080E7E4900DFCF0900DFD8D
:10118700E0FF900DFCE0FEC39F500B120C42900D48
:10119700FCE004F080E7900DFDE075F008A4FF90F7
:1011A7000DF9E0FBA3E0FAA3E02FF9EA35F0FA9096
:1011B7000DFEE0FD900DFDE0900E0BF0A3F0120C7C
:0111C7006ABD
:0111C8002204
:02105C00AD07DE
:10105E0012151D92103010037F0122EDB4010B12F8
:10106E00161492103010037F02227F8812163992C6
:10107E00103010037F0322E4900DFEF0A3F0A3F0D6
:10108E00A3F0A3F0A374FFF0A3E4F0A374FFF0A306
:10109E00E4F0A374F0F07B167A007D347C007F12AE
:1010AE00120D5892103010037F04227F64120F64C9
:1010BE0092103010037F0522900D99747FF0A37467
:1010CE0008F0900D99E0FEA3E0F5828E83741AF07D
:1010DE00900D99747FF0A37404F0900D99E0FEA327
:1010EE00E0F5828E83741DF0900D99747FF0A3E469
:1010FE00F0900D99E0FEA3E0FFF5828E83E054FEA2
:0D110E00F08F828E83E060037F06227F0059
:01111B0022B1
:1011C900E4900E20F0C20E300E0302126A900D99BF
:1011D900747FF0A37402F0900D99E0FAA3E0F58210
:1011E9008A83E0FE30E2E0900D99747FF0A37410D9
:1011F900F0900D99E0FAA3E0F5828A8374C0F0902B
:101209000D99747FF0A37411F0900D99E0FAA3E0A1
:10121900F5828A83EFF0900D99747FF0A37412F030
:10122900900D99E0FCA3E0F5828C83EDF0900D9987
:10123900747FF0A37413F0900D99E0FEA3E0F5829A
:101249008E83E4F0900D99747FF0A37414F0900DDF
:1012590099E0FEA3E0F5828E8374F0F07F0112120B
:01126900F78D
:01126A002261
:100E64000091E3720796E4750E9FED7C0998EA7B86
:100E74001C8DFF6E1B8AF8691283F1601584F66776
:100E840038A9DB4A3FAEDC4D36A7D54431A0D24366
:100E940024B5C75623B2C0512ABBC9582DBCCE5F56
:100EA40070E1930277E694057EEF9D0C79E89A0B46
:100EB4006CFD8F1E6BFA881962F3811065F4861736
:100EC40048D9AB3A4FDEAC3D46D7A53441D0A23326
:100ED40054C5B72653C2B0215ACBB9285DCCBE2F16
:100EE400E0710392E7760495EE7F0D9CE9780A9B06
:100EF400FC6D1F8EFB6A1889F2631180F5641687F6
:100F0400D8493BAADF4E3CADD64735A4D14032A3E5
:100F1400C45527B6C35220B1CA5B29B8CD5C2EBFD5
:100F2400900173E2970674E59E0F7DEC99087AEBC5
:100F34008C1D6FFE8B1A68F9821361F0851466F7B5
:100F4400A8394BDAAF3E4CDDA63745D4A13042D3A5
:100F5400B42557C6B32250C1BA2B59C8BD2C5ECF95
:10000E00410D9F00410DA00A410D1600C10C420C7E
:03001E0086000059
:0B170800E4FF7E107810E4F608DEFC21
:0117130022B3
:08172B00C2AF121708D2AF2271
:0A17200074102FF8E6FD76A5AF0562
:01172A00229C
:10165D00E4FDFCC3ED9FEC9E501174102DF8E67067
:10166D0003FEFF220DBD00010C80E8ED2401FFE417
:02167D003CFE31
:01167F002248
:0B15B700900DF9EBF0A3EAF0A3E9F0BF
:1015C200E4FFAE051DEE601C900DF9E0FBA3E4758F
:1015D200F001120AC1A9F0FA120A26FE6F900E64F7
:0415E20093FF80DE15
:0115E60022E2
:1016E800EF1FAC0670011E4C60060075E13B80F0F0
:0116F80022CF
:0413D2007FF47E0125
:0813D600900DF9EEF0A3EFF019
:1013DE00E4A3F0A3F0900DF9E0FEA3E0FFC3900D9F
:1013EE00FCE09F900DFBE09E5025E4FBFA7F017E12
:1013FE00001216E80BBB00010AEB640F4A70EE9068
:0F140E000DFCE004F070CE900DFBE004F080C602
:01141D0022AC
:10137D00E4900DF9F0A3F0E4FDFC900DF9E0FEA36F
:10138D00E07807C333CE33CED8F92401F58274004B
:10139D003EF583E5822DF582E5833CF583E4F00D82
:1013AD00BD00010CED64804C70D0900DFAE004F09E
:1013BD007006900DF9E004F0900DF9E07004A3E0D3
:0413CD00640870B38D
:0113D10022F9
:1014A200E4FDFCEDAE047807C333CE33CED8F9FFAA
:1014B2002401F58274003EF583E0701274012FF569
:1014C2008274003EF5837401F0AF05AE04220DBDB7
:0D14D20000010CED64084C70CA7E007FFF25
:0114DF0022EA
:1014E000E4FDFCEDAE047807C333CE33CED8F9FF6C
:1014F0002401F58274003EF583E0601174012FF53C
:101500008274003EF583E4F0AF05AE04220DBD0009
:0C151000010CED64084C70CB7E007FFFE6
:01151C0022AC
:1015E700A2AFE433FEC2AFEF7007900D0EEDF080AF
:1015F70014EFB40107900D0FEDF08009EFB4020569
:0C160700900C82EDF0AF06EE24FF92AFD5
:0116130022B4
:10155100A2AFE433FEC2AFEF7005900D0E8010EF25
:10156100B40105900D0F8007EFB40209900C82E0E1
:101571007A00FB8003E4FAFBAF06EE24FF92AFAFE3
:0315810003AE02B4
:011584002244
:10169C00A2AFE433FFC2AF900000E004F0E075F0BD
:0A16AC000684E5F0F0EF24FF92AF92
:0116B6002211
:1016B700A2AFE433FFC2AF900C83E004F0E075F013
:0A16C7000684E5F0F0EF24FF92AF77
:0116D10022F6
:10168000A2AFE433FFC2AF900D17E07004900D14C9
:0B169000F0E4900D13F0EF24FF92AF88
:01169B00222C
:10158500E4900E1BF0900D13E07004A3E004F090BE
:101595000D13E004F0A3E0D3940340047404800B1E
:1015A500900D13E0D3940440067405F07F00227F6C
:0115B5000134
:0115B6002212
:1016D200759850438780758921758DFF758BFAD275
:0616E2008ED28ED2AC2274
:0F16F900C28CC28D758CDC758A31D28CD2A9223D
:0C171400C2B58F993099FDC299D2B52260
:10146200900DF9EBF0A3EAF0A3E9F0A3ECF0A3ED01
:01147200F089
:10147300E4FDFC900DF9E0FBA3E0FAA3E0F98D8213
:101483008C83120A3FFF1217140DBD00010C75E186
:0E1493003BD3900DFDE09D900DFCE09C50D5EC
:0114A1002228
:03000B00020746A3
:10074600C0E0C0F0C083C082C0D075D000C000C079
:0D07560001C002C003C004C005C006C007FA
:10076300758CDC758A31B2B3900C88E0C394035066
:10077300030208B07403F0900D09E0FEA3E0FF4EFE
:1007830070030208A9EF24FFFFEE34FFFE900C89EB
:10079300E0C39FE49E4007E4FDFCFF1215E7E4FB82
:1007A300FA900D09E0FFA3E0900D9CCF0208A2741C
:1007B300892BF582E4340CF583E0FF900D9DE02452
:1007C300FFFD900D9CE034FFFCD3EF9DE49C4003C0
:1007D3000208A974892BF582740C3AF583E0248905
:1007E300F582E4340CF583E0F460030208A9900D6C
:1007F3000D04F0900D9BF0AF03A90774892BF582CC
:10080300E4340CF583E02BFFE43ACF2401CF34002A
:10081300FEE9FD7C00C39FEC9E5034748929F58268
:10082300E4340CF583E0FFC3ED9BFDEC9AFC900CE4
:1008330083E075F080A42482F582E5F03409F58322
:10084300E5822DF582E5833CF583EFF00980AC90DA
:100853000C83E02401FFE433FE7C007D06120A6C66
:10086300900000E06D60031216B774892BF582E4E3
:10087300340CF583E02BFFE43ACF2401FBE43FFA89
:1008830074892BF582E4340CF583E0FFC3900D9D4E
:10089300E09FFF900D9CE09400CF24FFCF34FFF046
:1008A300A3EFF00207B2900D09E4F0A3F0900C88D7
:1008B300E004F0900E20E004F0E0C39432400574AD
:1008C30033F0D20E900E1FE004F0E0C394324004E4
:1008D300E4F0D20D900C85E004F07006900C84E0F7
:1008E30004F0C3900C85E094F4900C84E0940140F0
:1008F300097401F0A374F5F0D208900C82E0600251
:1009030014F0900D0FE0600214F0900D0EE0600201
:0209130014F0DE
:10091500D007D006D005D004D003D002D001D00036
:0B092500D0D0D082D083D0F0D0E032E0
:0300230002141EA6
:0D141E00C0E0C0F0C083C082C0D075D0080F
:10142B00309829C298D2A9D28CAF99C2B5900D0928
:10143B00E475F001120AC1FC748925F0F582740C75
:0C144B003CF583EFF0900C88E4F0D2B583
:0B145700D0D0D082D083D0F0D0E032A3
:03000300020B09E4
:0D0B0900C0E0C0F0C083C082C0D075D0082D
:100B1600900E10E4F0900D12E004F07006900D11A6
:100B2600E004F0121585EF60097D5A7C007F021201
:100B360015E7900D11E07004A3E064057006900DB2
:100B460011F0A3F0C2B4900D99747FF0A37403F072
:100B5600900D99E0FEA3E0F5828E83E020E003028B
:100B66000C35900D99747FF0A37410F0900D99E0F8
:100B7600FEA3E0F5828E83E0900E0DF0FEA3F05406
:100B86000FA3F0EE30E603020C30900D99747FF05F
:100B9600A37410F0900E0FE02405FFE433FE900DD1
:100BA60099E0FCA3E0AA0CF97B0178117C0E7D018B
:100BB600120A00900E13E0900D10F0900E14E0FD56
:100BC600C4540F900E0DF0ED540FA3F0A3E0FF7E7A
:100BD60000C00EC00F900E0EE075F008A42401F9B7
:100BE600740435F0A809FC7D017B017A0E7916D0D4
:100BF6000FD00E120A00900E0EE0FF7E0012172094
:100C0600900E0DE02401FFE433FE12165DEF4E60F8
:100C160014D20BE075F008A4FF900E0FE02F900E93
:100C26001EF0121708900E1FE4F07F041212F7D27E
:010C3600B409
:0B0C3700D0D0D082D083D0F0D0E032CB
:07173300D2B8D2A8C288223F
:10002600E4900DA4F0900D17F0900DA2F0D2A7C2A7
:10003600AF900C84F0A3F0C208900D1874FFF0C2C4
:10004600961213D2D2961217081217331216D2121C
:10005600137D1216F97F0112105C900DA1EFF07559
:10006600E13BEF60117F0112105C900DA1EFF0C231
:10007600B5C2B475E13BD2B4D2B5E4900D9BF0A302
:10008600F0A3F0900D09F0A3F0900C88F0900C828C
:10009600F0900D0DF0C20BC209C20A900DA2F0E459
:1000A600900DA3F0900DA2E0FF75F050A42481F509
:1000B60082E5F03404F583C083C082900DA3E0FE90
:1000C600D082D08375F002120AD7E4F075F050EFB3
:1000D600A42482F582E5F03404F58375F002EE126D
:1000E6000AD7E4F0900DA3E004F0E0B428B6900D32
:1000F600A2E004F0E0B410A7E4900C83F0900000B6
:10010600F0900DA2F0E4900DA3F0900DA3E0FFC3D4
:1001160094805026900DA2E075F080A42482F5828A
:10012600E5F03409F583E5822FF582E43583F5831E
:10013600E4F0900DA3E004F080D0900DA2E004F06E
:10014600E0B406C1D2AF75E13B7F01121551EF4E07
:1001560060030202EC7D03FC7F011215E7900000AC
:10016600E0FB900C83E06B70030202ECE4900D9BC5
:10017600F0900000E0FC75F080A42482F582E5F0A2
:100186003409F583E0FD2402FEE433900D0BF0A361
:10019600CEF0ED04900D19F0A37402F0E4A3F0A3E1
:1001A600F075F080ECA42484F582E5F03409F5833B
:1001B600E0900D1DF075F080EBA42485F582E5F046
:1001C6003409F583E0900D1EF0900DA5E4F0A374BC
:1001D60006F0900D0BE0FEA3E024FFFFEE34FFFED9
:1001E600900DA5E0FCA3E0C39FEC9E5042900DA5A8
:1001F600E0FEA3E0FF900000E075F080A42480F507
:1002060082E5F03409F583E5822FF582E5833EF534
:1002160083E0FD74192FF582E4340DF583EDF0903B
:100226000DA6E004F070AB900DA5E004F080A3905D
:100236000D0BA3E02418F582E4340DF58374FFF06A
:10024600E4900DA3F0E4900DA2F0900DA2E0FFC3A0
:1002560094285057A3E0FE75F050A42481F582E55A
:10026600F03404F58375F002EF120AD7E0FF900D23
:100276001DE0FDEFB5052C75F050EEA42482F58245
:10028600E5F03404F583C083C082900DA2E0D082ED
:10029600D08375F002120AD7E0FF900D1EE0FEEF44
:1002A6006E6008900DA2E004F0809F900DA2E0C35E
:1002B6009428501BA3E0900E1CF0900E1D7434F091
:1002C6007B017A0D7919900D0BA3E0FD12111C909C
:1002D6000DA3E004F0E0C39410500302024BE49037
:1002E6000D0DF012169C7F02121551EF4E701F7DF8
:1002F6000AFC7F021215E7900D17E0FF7D341211FC
:10030600C9900D17E004F0E0540FF0121680300D7E
:1003160005C20D12172B200B030203B61214A2906E
:100326000DA7EEF0A3EFF0C39408EE94004003028D
:1003360003B6900E1EE0FD900DA7E0FEA3E0780741
:10034600C333CE33CED8F9FF2402F58274003EF5CE
:1003560083EDF0900D10E0FD74032FF58274003EDE
:10036600F583EDF0E4900DA2F0900E1EE0FF900DE7
:10037600A2E0C39F503AE0FD2401F582E43404F57F
:1003860083E0FC900DA7E0FEA3E07807C333CE33ED
:10039600CED8F92404F58274003EF583E5822DF566
:1003A60082E43583F583ECF0900DA2E004F080B989
:1003B6001214E0900DA7EEF0A3EFF0C39408EE94AC
:1003C600004003020710900DA7E0FAA3E0FBAE027F
:1003D6007807C333CE33CED8F9FDAC062402F582B6
:1003E60074003CF583E024FFFEE434FF900D0BF02F
:1003F600A3CEF074032DF58274003CF583E09009DA
:1004060081F0EBAE027807C333CE33CED8F9FDAC1C
:10041600062404F58274003CF583E014900D19F06F
:10042600A37430F074062DF58274003CF583E090D9
:100436000D1BF0900DA7E0FEA3E07807C333CE3383
:10044600CED8F92407F58274003EF583E0900D1CA2
:10045600F0900DA5E4F0A37404F0900D0BE0FEA35C
:10046600E024FEFFEE34FFFE900DA5E0FCA3E0FDC8
:10047600C39FEC9E503FA3E0FEA3E07807C333CEB4
:1004860033CED8F92406F58274003EF583E5822D35
:10049600F582E5833CF583E0FF74192DF582E4349B
:1004A6000DF583EFF0900DA6E004F070AD900DA56C
:1004B600E004F080A57B017A0D7919900D0BA3E07D
:1004C60024FEFD1215B7900D0BE0FCA3E0FDFE2403
:1004D60017F582E4340DF583EFF074182EF582E4F7
:1004E600340DF58374FFF07B017A0D7919121462CD
:1004F600C20BC20F7D0A7C00E4FF1215E7E4900DE3
:10050600A2F0900DA2E0FFC394285059900981E013
:10051600FE75F050A42481F582E5F03404F5837568
:10052600F002EF120AD7E0FF900D1BE0FDEFB505D4
:100536002C75F050EEA42482F582E5F03404F583A0
:10054600C083C082900DA2E0D082D08375F00212E3
:100556000AD7E0FF900D1CE0FEEF6E6008900DA23A
:10056600E004F0809D900DA2E0C39428500302079A
:1005760010E4F0900DA2E0FFC39428504990098141
:10058600E0FE75F050A42481F582E5F03404F5838D
:1005960075F002EF120AD7E0702475F050EEA4242D
:1005A60082F582E5F03404F583C083C082900DA203
:1005B600E0D082D08375F002120AD7E06008900D71
:1005C600A2E004F080AD900DA2E0C394285003028F
:1005D60006C6E4A3F0900981E0FF75F050A42483D9
:1005E600F582E5F03404F583C083C082900DA3E064
:1005F600FED082D08375F002120AD7E0FDEE25E028
:1006060024A9F582E4340DF583EDF075F050EFA4DE
:100616002484F582E5F03404F583C083C082900D0E
:10062600A3E0FFD082D08375F002120AD7E0FEEF76
:1006360025E024AAF582E4340DF583EEF0900DA3AF
:10064600E004F0E0B4278E900D1BE0900DF7F090DB
:100656000D1CE0900DF8F0E4900DA3F0900DA3E0D2
:10066600FF25E024A9F582E4340DF583E0FE900928
:1006760081E0FD75F050A42481F582E5F03404F59F
:100686008375F002EF120AD7EEF0900DA3E0FF2576
:10069600E024AAF582E4340DF583E0FE75F050ED12
:1006A600A42482F582E5F03404F58375F002EF1296
:1006B6000AD7EEF0900DA3E004F0E0B4289E804A3D
:1006C600900D1BE0FF900981E0FE75F050A4248197
:1006D600F582E5F03404F583C083C082900DA2E074
:1006E600FDD082D08375F002120AD7EFF0900D1C70
:1006F600E0FF75F050EEA42482F582E5F03404F5AF
:100706008375F002ED120AD7EFF0900D99747FF021
:10071600A37402F0900D99E0FEA3E0F5828E83E0CB
:10072600FF20E60302014C75E13BC2B5C2B41213C9
:10073600D2E4FF12105CD2B5D2B41213D202014C2D
:10127700020026E493A3F8E493A34003F68001F267
:1012870008DFF48029E493A3F85407240CC8C33378
:10129700C4540F4420C8834004F456800146F6DF47
:1012A700E4800B010204081020408090000EE47EC9
:1012B700019360BCA3FF543F30E509541FFEE4933C
:1012C700A360010ECF54C025E060A840B8E493A303
:1012D700FAE493A3F8E493A3C8C582C8CAC583CA2E
:1012E700F0A3C8C582C8CAC583CADFE9DEE780BEE6
:0100210000DE
:10093000E709F608DFFA8046E709F208DFFA803EA9
:1009400088828C83E709F0A3DFFA8032E309F60896
:10095000DFFA8078E309F208DFFA807088828C83FE
:10096000E309F0A3DFFA806489828A83E0A3F608B2
:10097000DFFA805889828A83E0A3F208DFFA804C8C
:1009800080D280FA80C680D4806980F28033801063
:1009900080A680EA809A80A880DA80E280CA8033CC
:1009A00089828A83ECFAE493A3C8C582C8CCC58344
:1009B000CCF0A3C8C582C8CCC583CCDFE9DEE78014
:1009C0000D89828A83E493A3F608DFF9ECFAA9F093
:1009D000EDFB2289828A83ECFAE0A3C8C582C8CCE9
:1009E000C583CCF0A3C8C582C8CCC583CCDFEADE02
:1009F000E880DB89828A83E493A3F208DFF980CC64
:100A000088F0EF60010E4E60C388F0ED2402B4045C
:100A10000050B9F582EB2402B4040050AF23234503
:060A20008223900980739F
:100A2600BB010689828A83E0225002E722BBFE02CE
:090A3600E32289828A83E4932201
:100A3F00BB010CE58229F582E5833AF583E022506C
:100A4F0006E92582F8E622BBFE06E92582F8E222B6
:0D0A5F00E58229F582E5833AF583E49322D0
:100A6C00BC000BBE0029EF8DF084FFADF022E4CC6E
:100A7C00F875F008EF2FFFEE33FEEC33FCEE9DEC37
:100A8C00984005FCEE9DFE0FD5F0E9E4CEFD22ED7D
:100A9C00F8F5F0EE8420D21CFEADF075F008EF2FC7
:100AAC00FFED33FD4007985006D5F0F222C398FDB8
:050ABC000FD5F0EA2255
:100AC100A3F8E0C5F025F0F0E582158270021583E8
:060AD100E0C838F0E82245
:0C0AD700A42582F582E5F03583F583222A
:100AE300D083D082F8E4937012740193700DA3A3A2
:100AF30093F8740193F5828883E4737402936860B6
:060B0300EFA3A3A380DFB5
:00000001FF
