:03000000020D5A94
:0C0D5A00787FE4F6D8FD75813A020DA107
:1010C400900B6E747FF0A3741FF0900B6EE0FCA382
:1010D400E0FDF5828C83EFF08D828C83E06F6002FB
:0410E400D322C3222E
:1009E600900B7BECF0A3EDF0900B6E747FF0A3748C
:1009F60010F0900B6EE0FCA3E0F5828C83EFF09094
:100A06000B6E747FF0A37411F0900B7BA3E0FF9044
:100A16000B6EE0FCA3E0F5828C83EFF0900B6E7416
:100A26007FF0A37412F0900B6EE0FCA3E0F5828CCD
:100A360083EBF0900B6E747FF0A37413F0900B7F32
:100A4600E0FEA3E0FFFD900B6EE0FAA3E0FBF5826B
:100A56008A83EDF08B828A83E0FDEF6D7001EE6094
:100A660002D322900B6E747FF0A37414F0900B8166
:100A7600A3E0FF900B6EE0FCA3E0F5828C83EFF021
:100A8600900B6E747FF0A37415F0900B83A3E0FFB8
:100A9600900B6EE0FCA3E0F5828C83EFF0900B6E7A
:100AA600747FF0A37416F0900B85A3E0FF900B6E95
:100AB600E0FCA3E0F5828C83EFF0900B6E747FF080
:100AC600A37417F0900B87E0FEA3E0FFFD900B6E7A
:100AD600E0FAA3E0FBF5828A83EDF08B828A83E05D
:0C0AE600FDEF6D7001EE6002D322C32210
:100AF200EF12062F0B21050B280A0B2F140B822055
:100B02000B36280B42320B49500B50640B577D0BAE
:100B12006A900B5EC80B8DE80B76F400000B989080
:100B22000B7A74BF8013900B7A7431804C900B7ADD
:100B320074188045900B7A7487F0A374FFF0805884
:100B4200900B7A740E8032900B7A74498013900B5A
:100B52007A74048024900B7A7403801D900B7A744B
:100B620043F0A3741BF08030900B7A7480F0A3746E
:100B7200FAF08024900B7A7401F0A3741CF08018B0
:100B8200E4900B7AF0A37416F0800DE4900B7AF0E7
:100B9200A37414F08002D322900B6E747FF0A374BE
:100BA20006F0900B7AE0FF900B6EE0FCA3E0FDF5FF
:100BB200828C83EFF08D828C83E06F6002D322906F
:100BC2000B6E747FF0A37407F0900B7BE0FF900B29
:100BD2006EE0FCA3E0FDF5828C83EFF08D828C83C6
:070BE200E06F6002D322C3A3
:010BE90022E9
:10109F00900B6E747FF0A37409F0900B6EE0FEA3BB
:1010AF00E0FFF5828E8374AAF08F828E83E0B4AA5C
:0510BF0002C322D32250
:10103F00900B6E747FF0A3E4F0900B6EE0FEA3E0D4
:10104F00FFF5828E83E0900B7AF08F828E83740986
:10105F00F0900B6EE0FEA3E0F5828E83E030E002AD
:03106F00C322D3C6
:01107200225B
:100DE600900B6E747FF0A37401F0900B6EE0FCA381
:100DF600E0F5828C83EFF024FE601224FE602B2443
:100E0600FC604424F86004240F7059C322900B6ED2
:100E1600747FF0A37402F0900B6EE0FEA3E0F582FF
:100E26008E83E020E502C322D322900B6E747FF0FE
:100E3600A37402F0900B6EE0FEA3E0F5828E83E0D1
:100E460030E002D322C322900B6E747FF0A37402AB
:100E5600F0900B6EE0FEA3E0F5828E83E020E102C7
:060E6600C322D322D322B7
:1008D000EE75F008A4FF900B7AE0FBA3E0FAA3E02A
:1008E0002FF9EA35F0FA900B7EE0900B8CF0900B2C
:0808F0007DE0900B8DF07D0806
:0B08F800900B88EBF0A3EAF0A3E9F0FE
:10090300E4900B96F0C20D300D030209E5900B6ED7
:10091300747FF0A37402F0900B6EE0FEA3E0F58207
:100923008E83E0FF30E2E0900B6E747FF0A37410CF
:10093300F0ED4480FF900B6EE0FAA3E0F5828A832A
:10094300EFF0900B6E747FF0A37411F0900B92E0B4
:10095300FF900B6EE0FAA3E0F5828A83EFF0900B31
:100963006E747FF0A37412F0900B93E0FF900B6E04
:10097300E0FAA3E0F5828A83EFF0900B6E747FF0C8
:10098300A37413F0900B8CE0C454F0FFA3E0540F56
:100993002FFF900B6EE0FAA3E0F5828A83EFF090CD
:1009A3000B6E747FF0A37414F0900B6EE0FEA3E063
:1009B300F5828E8374F0F0900B6E747FF0A3741540
:1009C300F0AF057E00900B6EE0FCA3E0F87D019094
:1009D3000B88E0FBA3E0FAA3E0F91205A47F011260
:0209E3000DE61F
:0109E50022EF
:0B0CAD00900B7AEBF0A3EAF0A3E9F053
:100CB800E4900B7EF0900B7EE0FFC3940850147410
:100CC800802FF582E4340BF583E4F0900B7EE0048A
:100CD800F080E2ED131313541F900B7EF0ED5407D0
:100CE800A3F07024900B7EE014F0E4900B7DF0905C
:100CF8000B7EE0FF900B7DE0FED39F50541208D08E
:100D0800900B7DE004F080E7E4900B7DF0900B7E83
:100D1800E0FF900B7DE0FEC39F500B1208D0900BB4
:100D28007DE004F080E7900B7EE075F008A4FF906A
:100D38000B7AE0FBA3E0FAA3E02FF9EA35F0FA908A
:100D48000B7FE0FD900B7EE0900B8CF0A3F0120877
:010D5800F8A2
:010D59002277
:020BEA00AD0755
:100BEC0012103F920F300F037F0122EDB4010B1254
:100BFC00109F920F300F037F02227F881210C49235
:100C0C000F300F037F0322900A6BE0FFE4900B7F01
:100C1C00F0A3F0A3F0A3F0A3F0A374FFF0A3E4F00F
:100C2C00A374FFF0A3E4F0A374F0F07B167A007DBC
:100C3C00347C001209E6920F300F037F04227F648C
:100C4C00120AF2920F300F037F0522900B6E747F05
:100C5C00F0A37408F0900B6EE0FEA3E0F5828E8397
:100C6C00741AF0900B6E747FF0A37404F0900B6EFA
:100C7C00E0FEA3E0F5828E83741DF0900B6E747F02
:100C8C00F0A3E4F0900B6EE0FEA3E0FFF5828E8300
:100C9C00E054FEF08F828E83E060037F06227F009B
:010CAC002225
:10000E00410B7400410B750A410A6800C10B42098D
:03001E00030000DC
:0B116400E4FF7E10782BE4F608DEFCB0
:01116F00225D
:08118700C2AF121164D2AF22C5
:0A117C00742B2FF8E6FD76A5AF05F1
:011186002246
:1010E800E4FDFCC3ED9FEC9E5011742B2DF8E670C7
:1010F80003FEFF220DBD00010C80E8ED2401FFE492
:021108003CFEAB
:01110A0022C2
:10114400EF1FAC0670011E4C60060075E13B80F099
:011154002278
:040EE6007FF47E0116
:080EEA00900B7AEEF0A3EFF08B
:100EF200E4A3F0A3F0900B7AE0FEA3E0FFC3900B13
:100F02007DE09F900B7CE09E5025E4FBFA7F017E02
:100F1200001211440BBB00010AEB640F4A70EE9001
:0F0F22000B7DE004F070CE900B7CE004F080C6F5
:010F3100229D
:100E6C00E4900B7AF0A3F0E4FDFC900B7AE0FEA387
:100E7C00E07807C333CE33CED8F92400F582740062
:100E8C003EF583E5822DF582E5833CF583E4F09015
:100E9C000B7AE0FEA3E07807C333CE33CED8F92427
:100EAC0000F58274043EF583E5822DF582E5833CE2
:100EBC00F583E4F00DBD00010CED64804C70AB903B
:100ECC000B7BE004F07006900B7AE004F0900B7A48
:090EDC00E07004A3E06408708ECC
:010EE50022EA
:100FBD00E4FDFCEDAE047807C333CE33CED8F9F59E
:100FCD00828E831205CA701AEDAE047807C333CE34
:100FDD0033CED8F9F5828E8374011205F7AF05AEC5
:100FED0004220DBD00010CED64084C70C67E007F1F
:010FFD00FFF4
:010FFE0022D0
:060F32007B017A0079004A
:100F3800E4FDFCEDAE047807C333CE33CED8F9F523
:100F4800828E831205CA6019EDAE047807C333CECA
:100F580033CED8F9F5828E83E41205F7AF05AE04D7
:100F6800220DBD00010CED64084C70C77E007FFFA8
:010F78002256
:10110B00A2AFE433FEC2AFEF7005900B6C8007EF1C
:10111B00B40108900A69ECF0A3EDF0AF06EE24FFE2
:02112B0092AF81
:01112D00229F
:10107300A2AFE433FEC2AFEF7005900B6C8007EFB5
:10108300B4010A900A69E0FAA3E0FB8003E4FAFBE7
:0B109300AF06EE24FF92AFAF03AE02E9
:01109E00222F
:10112E00759850438780758921758DFF758BFAD21E
:06113E008ED28ED2AC221D
:0F115500C28CC28D758CDC758A31D28CD2A922E6
:0C117000C2B58F993099FDC299D2B5220A
:100FFF00900B7AEBF0A3EAF0A3E9F0A3ECF0A3EDEA
:01100F00F0F0
:10101000E4FDFC900B7AE0FBA3E0FAA3E0F98D82FB
:101020008C831205CAFF1211700DBD00010C75E111
:0E1030003BD3900B7EE09D900B7DE09C50D555
:01103E00228F
:03000B0002065595
:10065500C0E0C083C082C0D075D000C006C0077599
:100665008CDC758A31B2B3900905E0C3940550035B
:100675000207137405F0900A06E0FEA3E0FF4E7032
:100685000302070C900B71EEF0A3EFF024FFFFEED1
:1006950034FFFE900906E06F7001EE706A900B71F1
:1006A500E0FEA3E02405F58274093EF583E0F470CD
:1006B50056900907E0FF701790090CE0B40210A3EB
:1006C500E0700C900A0A7403F0900B707401F0EF5F
:1006D500B4021390090AE0700DA3E07009900A0AAC
:1006E50004F0900B70F0900907E0B4031A90090A22
:1006F500E07014A3E07010A3E0B4520B900A0A74E2
:1007050002F0900B7014F0900A06E4F0A3F0900943
:1007150005E004F0900B96E004F0E0C39432400548
:100725007433F0D20D900B95E004F0E0C3943240A1
:1007350004E4F0D20C900902E004F070069009017F
:10074500E004F0C3900902E094F4900901E09401FB
:1007550040097401F0A374F5F0D208900B6CE070B9
:1007650002A3E0600E900B6DE024FFF0900B6CE0AF
:1007750034FFF0900A69E07002A3E0600E900A6A07
:10078500E024FFF0900A69E034FFF0D007D006D0EE
:08079500D0D082D083D0E03205
:03002300020F7950
:0D0F7900C0E0C0F0C083C082C0D075D008B9
:100F8600309829C298D2A9D28CAF99C2B5900A06D8
:100F9600E475F001120619FC740625F0F582740951
:0C0FA6003CF583EFF0900905E4F0D2B5B3
:0B0FB200D0D0D082D083D0F0D0E0324D
:0300030002079D54
:0D079D00C0E0C0F0C083C082C0D075D0089D
:1007AA00900B91E4F0900A16E004F07006900A1596
:1007BA00E004F0900901E4F0A3F0C208900A15E001
:1007CA007004A3E064057006900A15F0A3F0C2B4A1
:1007DA00900B6E747FF0A37403F0900B6EE0FEA38F
:1007EA00E0F5828E83E020E0030208C3900B6E746A
:1007FA007FF0A37410F0900B6EE0FEA3E0F5828EFA
:10080A0083E0900B8EF0FEA3F0540FA3F0EE30E6D7
:10081A00030208B8900B6E747FF0A37410F0900B6B
:10082A0090E02405FFE433FE900B6EE0FCA3E0AAFF
:10083A000CF97B01780B7C0A7D011205A4900A0E43
:10084A00E0FDC4540F900B8EF0ED540FA3F0A3E01B
:10085A00FF7E00C00EC00F900B8FE075F008A42435
:10086A0000F9740835F0A809FC7D017B017A0A7940
:10087A0010D00FD00E1205A4900B8FE0FF7E00124D
:10088A00117C900B8EE02401FFE433FE1210E8EF96
:10089A004E6014D20AE075F008A4FF900B90E02F86
:1008AA00900B94F0121164900B95E4F08006900975
:0B08BA00007401F07F04120DE6D2B4C0
:0B08C500D0D0D082D083D0F0D0E03241
:07118F00D2B8D2A8C28822E9
:10002600E4900B79F0900B77F0A3F0D2A7C2AFD291
:1000360091D292D293D294900901F0A3F0C2089083
:100046000A6BF000000000309106E04401F08007E2
:10005600900A6BE054FEF0900A6BE0309205440281
:10006600F0800354FDF0900A6BE03093054404F0F1
:10007600800354FBF0900A6BE03094054408F0804E
:100086000354F7F0C296120EE6D296121164120EBF
:100096006C12118F12112E1211557F01120BEA905C
:1000A6000B76EFF075E13BEF60117F01120BEA90E2
:1000B6000B76EFF0C2B5C2B475E13BD2B4D2B5E46B
:1000C600900B70F0A3F0A3F0900A06F0A3F090094D
:1000D60005F0900A0AF0C20AC209FDFCFF12110BD4
:1000E6007F0112110BD2AF75E13B900B70E06401FA
:1000F600600302020CF0900A0AE024FD700302017C
:10010600CB2402600302020C7B017A007900120FF5
:10011600BD900B79EFF0F4700302020CE4900B77BC
:10012600F0A3F0900B77E0FEA3E0FF2406F582E44F
:100136003409F583E0FD900B79E075F080A4240482
:10014600F582E5F03400F583E5822FF582E5833EFE
:10015600F583EDF0900B78E004F07006900B77E0F5
:1001660004F0900B77E07004A3E0647C70B5900B0C
:1001760071A3E0FF900B79E0FE75F080A42403F5EF
:1001860082E5F03400F583EFF0900A6C7407F0A373
:100196007403F0E4A3F0A3F075F080EEA42406F552
:1001A60082E5F03400F583E0900A70F075F080EE99
:1001B600A42407F582E5F03400F583E0900A71F097
:1001C600A374528029900A6C740CF0A37401F0E4B5
:1001D600A3F0A3F0A3F0A3F0A37402F0900A6BE0DF
:1001E600240B900A73F0E4A3F0A3F0A3F0A3F0A30A
:1001F60074FFF07B017A0A796C900A6CE02401FDA9
:10020600E433FC120FFF900900E064016003020270
:10021600C0F0120F32900B79EFF0F470030202C0B7
:10022600E4900B77F0A3F0900B79E0F975F080A4D9
:100236002403F582E5F03400F583E0FFC3900B78E4
:10024600E09F900B77E09400503CE0FEA3E0FF7542
:10025600F080E9A42404F582E5F03400F583E58214
:100266002FF582E5833EF583E0FD746C2FF582E47D
:10027600340AF583EDF0900B78E004F070A9900B4A
:1002860077E004F080A175F080E9A42403F582E507
:10029600F03400F583E0FF7E00900A08EEF0A3EF4D
:1002A600F0900B927412F0900A6BE0900B93F07B37
:1002B600017A0A796CAD07120CAD300C05C20C122E
:1002C6001187E4FF121073EF4E600302036E7B0189
:1002D6007A047900120F38900B79EFF0C394084036
:1002E6000302036EE075F080A42403F582E5F03482
:1002F60004F583E0FF900A08E4F0A3EFF0E4900B26
:1003060077F0A3F0900B77E0FEA3E0FFA3E075F093
:1003160080A42404F582E5F03404F583E5822FF504
:1003260082E5833EF583E0FD746C2FF582E4340AA2
:10033600F583EDF0900B78E004F07006900B77E013
:1003460004F0900B77E07004A3E0648070B67B0144
:100356007A0A796C900A08E0FCA3E0FD120FFF7D93
:10036600077C00E4FF12110B200A0302049EC20A56
:10037600C20E7B017A047900120FBD900B79EFF063
:10038600C39408506B900B94E0FF900B79E075F0E6
:1003960080A42403F582E5F03404F583EFF0E490BD
:1003A6000B77F0A3F0900B77E0FEA3E0FF2400F5B7
:1003B60082E43408F583E0FD900B79E075F080A4C3
:1003C6002404F582E5F03404F583E5822FF582E511
:1003D600833EF583EDF0900B78E004F07006900B09
:1003E60077E004F0900B77E07004A3E0647C70B5CE
:1003F600120F32900B79EFF0F4700302049EE49032
:100406000B77F0A3F0900B79E0F975F080A4240344
:10041600F582E5F03400F583E0FFC3900B78E09FAA
:10042600900B77E09400503CE0FEA3E0FF75F0806F
:10043600E9A42404F582E5F03400F583E5822FF57E
:1004460082E5833EF583E0FD746C2FF582E4340A81
:10045600F583EDF0900B78E004F070A9900B77E04F
:1004660004F080A175F080E9A42403F582E5F03458
:1004760000F583E0FF7E00900A08EEF0A3EFF0900F
:100486000B927412F0900A6BE0900B93F07B017A5A
:100496000A796CAD07120CAD900B6E747FF0A374E5
:1004A60002F0900B6EE0FEA3E0F5828E83E0FF2063
:1004B600E6030200ED75E13BC2B5C2B4120EE6E4F6
:0E04C600FF120BEAD2B5D2B4120EE60200ED20
:100D6600020026E493A3F8E493A34003F68001F27D
:100D760008DFF48029E493A3F85407240CC8C3338E
:100D8600C4540F4420C8834004F456800146F6DF5D
:100D9600E4800B010204081020408090000EE47EDF
:100DA600019360BCA3FF543F30E509541FFEE49352
:100DB600A360010ECF54C025E060A840B8E493A319
:100DC600FAE493A3F8E493A3C8C582C8CAC583CA44
:100DD600F0A3C8C582C8CAC583CADFE9DEE780BEFC
:0100210000DE
:1004D400E709F608DFFA8046E709F208DFFA803E0A
:1004E40088828C83E709F0A3DFFA8032E309F608F7
:1004F400DFFA8078E309F208DFFA807088828C835F
:10050400E309F0A3DFFA806489828A83E0A3F60812
:10051400DFFA805889828A83E0A3F208DFFA804CEC
:1005240080D280FA80C680D4806980F280338010C3
:1005340080A680EA809A80A880DA80E280CA80332C
:1005440089828A83ECFAE493A3C8C582C8CCC583A4
:10055400CCF0A3C8C582C8CCC583CCDFE9DEE78074
:100564000D89828A83E493A3F608DFF9ECFAA9F0F3
:10057400EDFB2289828A83ECFAE0A3C8C582C8CC49
:10058400C583CCF0A3C8C582C8CCC583CCDFEADE62
:10059400E880DB89828A83E493A3F208DFF980CCC4
:1005A40088F0EF60010E4E60C388F0ED2402B404BD
:1005B4000050B9F582EB2402B4040050AF23234564
:0605C40082239005247360
:1005CA00BB010CE58229F582E5833AF583E02250E6
:1005DA0006E92582F8E622BBFE06E92582F8E22230
:0D05EA00E58229F582E5833AF583E493224A
:1005F700F8BB010DE58229F582E5833AF583E8F03A
:10060700225006E92582C8F622BBFE05E92582C8E5
:02061700F222CD
:10061900A3F8E0C5F025F0F0E58215827002158394
:06062900E0C838F0E822F1
:10062F00D083D082F8E4937012740193700DA3A35A
:10063F0093F8740193F5828883E47374029368606E
:06064F00EFA3A3A380DF6E
:00000001FF
